{
  "contractName": "FundWallet",
  "abi": [
    {
      "inputs": [],
      "stateMutability": "nonpayable",
      "type": "constructor"
    },
    {
      "anonymous": false,
      "inputs": [
        {
          "indexed": true,
          "internalType": "address",
          "name": "previousOwner",
          "type": "address"
        },
        {
          "indexed": true,
          "internalType": "address",
          "name": "newOwner",
          "type": "address"
        }
      ],
      "name": "OwnershipTransferred",
      "type": "event"
    },
    {
      "inputs": [],
      "name": "balance",
      "outputs": [
        {
          "internalType": "uint256",
          "name": "",
          "type": "uint256"
        }
      ],
      "stateMutability": "view",
      "type": "function",
      "constant": true
    },
    {
      "inputs": [
        {
          "internalType": "address",
          "name": "",
          "type": "address"
        }
      ],
      "name": "fundedAmount",
      "outputs": [
        {
          "internalType": "uint256",
          "name": "",
          "type": "uint256"
        }
      ],
      "stateMutability": "view",
      "type": "function",
      "constant": true
    },
    {
      "inputs": [
        {
          "internalType": "uint256",
          "name": "",
          "type": "uint256"
        }
      ],
      "name": "funders",
      "outputs": [
        {
          "internalType": "address",
          "name": "",
          "type": "address"
        }
      ],
      "stateMutability": "view",
      "type": "function",
      "constant": true
    },
    {
      "inputs": [
        {
          "internalType": "address",
          "name": "",
          "type": "address"
        }
      ],
      "name": "isFunded",
      "outputs": [
        {
          "internalType": "bool",
          "name": "",
          "type": "bool"
        }
      ],
      "stateMutability": "view",
      "type": "function",
      "constant": true
    },
    {
      "inputs": [],
      "name": "owner",
      "outputs": [
        {
          "internalType": "address",
          "name": "",
          "type": "address"
        }
      ],
      "stateMutability": "view",
      "type": "function",
      "constant": true
    },
    {
      "inputs": [],
      "name": "renounceOwnership",
      "outputs": [],
      "stateMutability": "nonpayable",
      "type": "function"
    },
    {
      "inputs": [
        {
          "internalType": "address",
          "name": "newOwner",
          "type": "address"
        }
      ],
      "name": "transferOwnership",
      "outputs": [],
      "stateMutability": "nonpayable",
      "type": "function"
    },
    {
      "inputs": [],
      "name": "addFund",
      "outputs": [],
      "stateMutability": "payable",
      "type": "function",
      "payable": true
    },
    {
      "inputs": [
        {
          "internalType": "uint256",
          "name": "_amount",
          "type": "uint256"
        }
      ],
      "name": "withdrawFund",
      "outputs": [],
      "stateMutability": "payable",
      "type": "function",
      "payable": true
    },
    {
      "inputs": [],
      "name": "getAllFunders",
      "outputs": [
        {
          "internalType": "address[]",
          "name": "",
          "type": "address[]"
        }
      ],
      "stateMutability": "view",
      "type": "function",
      "constant": true
    },
    {
      "inputs": [
        {
          "internalType": "uint8",
          "name": "index",
          "type": "uint8"
        }
      ],
      "name": "getFunderAtIndex",
      "outputs": [
        {
          "internalType": "address",
          "name": "",
          "type": "address"
        }
      ],
      "stateMutability": "view",
      "type": "function",
      "constant": true
    }
  ],
  "bytecode": "0x608060405234801561001057600080fd5b5061002d61002261003960201b60201c565b61004160201b60201c565b47600281905550610105565b600033905090565b60008060009054906101000a900473ffffffffffffffffffffffffffffffffffffffff169050816000806101000a81548173ffffffffffffffffffffffffffffffffffffffff021916908373ffffffffffffffffffffffffffffffffffffffff1602179055508173ffffffffffffffffffffffffffffffffffffffff168173ffffffffffffffffffffffffffffffffffffffff167f8be0079c531659141344cd1fd0a4f28419497f9722a3daafe3b4186f6b6457e060405160405180910390a35050565b610ed8806101146000396000f3fe60806040526004361061009c5760003560e01c8063715018a611610064578063715018a61461019f5780638da5cb5b146101b6578063a2f09dfa146101e1578063b69ef8a8146101eb578063dc0d3dff14610216578063f2fde38b146102535761009c565b80630a93cf33146100a15780630cee1725146100de5780634099d033146100fa5780635689b249146101375780636fbbb55d14610174575b600080fd5b3480156100ad57600080fd5b506100c860048036038101906100c391906109e1565b61027c565b6040516100d59190610b48565b60405180910390f35b6100f860048036038101906100f391906109b8565b6102ed565b005b34801561010657600080fd5b50610121600480360381019061011c919061098f565b61040f565b60405161012e9190610c20565b60405180910390f35b34801561014357600080fd5b5061015e6004803603810190610159919061098f565b610427565b60405161016b9190610b85565b60405180910390f35b34801561018057600080fd5b50610189610447565b6040516101969190610b63565b60405180910390f35b3480156101ab57600080fd5b506101b46104d5565b005b3480156101c257600080fd5b506101cb61055d565b6040516101d89190610b48565b60405180910390f35b6101e9610586565b005b3480156101f757600080fd5b50610200610747565b60405161020d9190610c20565b60405180910390f35b34801561022257600080fd5b5061023d600480360381019061023891906109b8565b61074d565b60405161024a9190610b48565b60405180910390f35b34801561025f57600080fd5b5061027a6004803603810190610275919061098f565b61078c565b005b600060018260ff16815481106102bb577f4e487b7100000000000000000000000000000000000000000000000000000000600052603260045260246000fd5b9060005260206000200160009054906101000a900473ffffffffffffffffffffffffffffffffffffffff169050919050565b6102f5610884565b73ffffffffffffffffffffffffffffffffffffffff1661031361055d565b73ffffffffffffffffffffffffffffffffffffffff1614610369576040517f08c379a000000000000000000000000000000000000000000000000000000000815260040161036090610be0565b60405180910390fd5b600081116103ac576040517f08c379a00000000000000000000000000000000000000000000000000000000081526004016103a390610bc0565b60405180910390fd5b3373ffffffffffffffffffffffffffffffffffffffff166108fc829081150290604051600060405180830381858888f193505050501580156103f2573d6000803e3d6000fd5b5080600260008282546104059190610cdb565b9250508190555050565b60046020528060005260406000206000915090505481565b60036020528060005260406000206000915054906101000a900460ff1681565b606060018054806020026020016040519081016040528092919081815260200182805480156104cb57602002820191906000526020600020905b8160009054906101000a900473ffffffffffffffffffffffffffffffffffffffff1673ffffffffffffffffffffffffffffffffffffffff1681526020019060010190808311610481575b5050505050905090565b6104dd610884565b73ffffffffffffffffffffffffffffffffffffffff166104fb61055d565b73ffffffffffffffffffffffffffffffffffffffff1614610551576040517f08c379a000000000000000000000000000000000000000000000000000000000815260040161054890610be0565b60405180910390fd5b61055b600061088c565b565b60008060009054906101000a900473ffffffffffffffffffffffffffffffffffffffff16905090565b600034116105c9576040517f08c379a00000000000000000000000000000000000000000000000000000000081526004016105c090610c00565b60405180910390fd5b600360003373ffffffffffffffffffffffffffffffffffffffff1673ffffffffffffffffffffffffffffffffffffffff16815260200190815260200160002060009054906101000a900460ff166106d6576001339080600181540180825580915050600190039060005260206000200160009091909190916101000a81548173ffffffffffffffffffffffffffffffffffffffff021916908373ffffffffffffffffffffffffffffffffffffffff1602179055506001600360003373ffffffffffffffffffffffffffffffffffffffff1673ffffffffffffffffffffffffffffffffffffffff16815260200190815260200160002060006101000a81548160ff0219169083151502179055505b34600460003373ffffffffffffffffffffffffffffffffffffffff1673ffffffffffffffffffffffffffffffffffffffff16815260200190815260200160002060008282546107259190610c85565b92505081905550346002600082825461073e9190610c85565b92505081905550565b60025481565b6001818154811061075d57600080fd5b906000526020600020016000915054906101000a900473ffffffffffffffffffffffffffffffffffffffff1681565b610794610884565b73ffffffffffffffffffffffffffffffffffffffff166107b261055d565b73ffffffffffffffffffffffffffffffffffffffff1614610808576040517f08c379a00000000000000000000000000000000000000000000000000000000081526004016107ff90610be0565b60405180910390fd5b600073ffffffffffffffffffffffffffffffffffffffff168173ffffffffffffffffffffffffffffffffffffffff161415610878576040517f08c379a000000000000000000000000000000000000000000000000000000000815260040161086f90610ba0565b60405180910390fd5b6108818161088c565b50565b600033905090565b60008060009054906101000a900473ffffffffffffffffffffffffffffffffffffffff169050816000806101000a81548173ffffffffffffffffffffffffffffffffffffffff021916908373ffffffffffffffffffffffffffffffffffffffff1602179055508173ffffffffffffffffffffffffffffffffffffffff168173ffffffffffffffffffffffffffffffffffffffff167f8be0079c531659141344cd1fd0a4f28419497f9722a3daafe3b4186f6b6457e060405160405180910390a35050565b60008135905061095f81610e5d565b92915050565b60008135905061097481610e74565b92915050565b60008135905061098981610e8b565b92915050565b6000602082840312156109a157600080fd5b60006109af84828501610950565b91505092915050565b6000602082840312156109ca57600080fd5b60006109d884828501610965565b91505092915050565b6000602082840312156109f357600080fd5b6000610a018482850161097a565b91505092915050565b6000610a168383610a22565b60208301905092915050565b610a2b81610d0f565b82525050565b610a3a81610d0f565b82525050565b6000610a4b82610c4b565b610a558185610c63565b9350610a6083610c3b565b8060005b83811015610a91578151610a788882610a0a565b9750610a8383610c56565b925050600181019050610a64565b5085935050505092915050565b610aa781610d21565b82525050565b6000610aba602683610c74565b9150610ac582610d93565b604082019050919050565b6000610add601083610c74565b9150610ae882610de2565b602082019050919050565b6000610b00602083610c74565b9150610b0b82610e0b565b602082019050919050565b6000610b23601683610c74565b9150610b2e82610e34565b602082019050919050565b610b4281610d4d565b82525050565b6000602082019050610b5d6000830184610a31565b92915050565b60006020820190508181036000830152610b7d8184610a40565b905092915050565b6000602082019050610b9a6000830184610a9e565b92915050565b60006020820190508181036000830152610bb981610aad565b9050919050565b60006020820190508181036000830152610bd981610ad0565b9050919050565b60006020820190508181036000830152610bf981610af3565b9050919050565b60006020820190508181036000830152610c1981610b16565b9050919050565b6000602082019050610c356000830184610b39565b92915050565b6000819050602082019050919050565b600081519050919050565b6000602082019050919050565b600082825260208201905092915050565b600082825260208201905092915050565b6000610c9082610d4d565b9150610c9b83610d4d565b9250827fffffffffffffffffffffffffffffffffffffffffffffffffffffffffffffffff03821115610cd057610ccf610d64565b5b828201905092915050565b6000610ce682610d4d565b9150610cf183610d4d565b925082821015610d0457610d03610d64565b5b828203905092915050565b6000610d1a82610d2d565b9050919050565b60008115159050919050565b600073ffffffffffffffffffffffffffffffffffffffff82169050919050565b6000819050919050565b600060ff82169050919050565b7f4e487b7100000000000000000000000000000000000000000000000000000000600052601160045260246000fd5b7f4f776e61626c653a206e6577206f776e657220697320746865207a65726f206160008201527f6464726573730000000000000000000000000000000000000000000000000000602082015250565b7f6d75737420626520706f73697469766500000000000000000000000000000000600082015250565b7f4f776e61626c653a2063616c6c6572206973206e6f7420746865206f776e6572600082015250565b7f6d757374206265206d6f7265207468616e207a65726f00000000000000000000600082015250565b610e6681610d0f565b8114610e7157600080fd5b50565b610e7d81610d4d565b8114610e8857600080fd5b50565b610e9481610d57565b8114610e9f57600080fd5b5056fea2646970667358221220bb087b7b5b18884c24815039beffffda57c2c4e9457a6108c7c994f51452facf64736f6c63430008040033",
  "immutableReferences": {},
  "source": "// SPDX-License-Identifier: MIT\npragma solidity >=0.6.0 <0.9.0;\n\nimport \"@openzeppelin/contracts/access/Ownable.sol\";\n\ncontract FundWallet is Ownable {\n\n    address[] public funders;\n    uint public balance;\n    mapping(address=>bool) public isFunded;\n    mapping(address=>uint) public fundedAmount;\n\n\n    constructor () {\n        balance = address(this).balance;\n    }\n\n    function addFund() public payable{\n        require(msg.value>0, \"must be more than zero\");\n        if (!isFunded[msg.sender]){\n            funders.push(msg.sender);\n            isFunded[msg.sender]=true;\n        }\n        fundedAmount[msg.sender] += msg.value;\n        balance += msg.value;\n    }\n\n    function withdrawFund(uint _amount) public payable onlyOwner{\n        require(_amount>0, \"must be positive\");\n        payable(msg.sender).transfer(_amount);\n        balance -= _amount;\n    }\n\n    function getAllFunders() public view returns (address[] memory) {\n        return funders;\n    }\n\n    function getFunderAtIndex(uint8 index) external view returns(address) {\n        return funders[index];\n    }\n}\n\n\n// const instance = await FundWallet.deployed();\n\n// instance.addFund({from: account[0], value: \"100000000000000000\"})\n// instance.addFund({from: account[1], value: \"100000000000000000\"})\n\n\n// instance.withdrawFund({\"10000000000000000\", (from: account[0])})",
  "sourcePath": "/Users/sedat_mac/Desktop/projects/fund-wallet/contracts/FundWallet.sol",
  "compiler": {
    "name": "solc",
    "version": "0.8.4+commit.c7e474f2.Emscripten.clang"
  },
  "schemaVersion": "3.4.5",
  "updatedAt": "2022-04-30T22:04:37.635Z",
  "networkType": "ethereum",
  "devdoc": {
    "kind": "dev",
    "methods": {
      "owner()": {
        "details": "Returns the address of the current owner."
      },
      "renounceOwnership()": {
        "details": "Leaves the contract without owner. It will not be possible to call `onlyOwner` functions anymore. Can only be called by the current owner. NOTE: Renouncing ownership will leave the contract without an owner, thereby removing any functionality that is only available to the owner."
      },
      "transferOwnership(address)": {
        "details": "Transfers ownership of the contract to a new account (`newOwner`). Can only be called by the current owner."
      }
    },
    "version": 1
  },
  "userdoc": {
    "kind": "user",
    "methods": {},
    "version": 1
  }
}